:100000000C942F110C9457560C942C560C940156AA
:100010000C94D6550C94AB550C9480550C945555B6
:100020000C942A550C9460110C9460110C9460117E
:100030000C9460110C9408350C9460110C946011B0
:100040000C9460110C94BC390C9460110C946011E8
:100050000C9460110C9460110C94D7780C94E054BB
:100060000C9460110C94BEBD0C9460110C94601142
:100070000C9460110C9460110C9460110C9460113C
:100080000C9460110C9460110C9460110C9460112C
:100090000C9460110C9460110C9460110C9460111C
:1000A0000C9460110C9460110C9460110C9460110C
:1000B0000C9460110C9460110C9460110C946011FC
:1000C0000C9460110C9460110C9460110C946011EC
:1000D0000C9460110C9460110C94C1720C94827297
:1000E0000C946011B72CD52C0B2D292D3F2D6D2D87
:1000F000E02D4D2EFB2E532F842F9D2FA431EB2F5F
:10010000F52FFF2F09301A3044306A308830DE3046
:100110001A3124312E3138314231A4315A31A431CF
:10012000A431A431A4316331BD53C053AF53B35391
:10013000B953F753C453C853CE53D253D653DC5399
:10014000E053E453F753EA53EE53F2536079707976
:100150008F799F79BA79BF79C279C779CA79CF790E
:10016000D279D779E17970A775A77AA784A78EA7E6
:1001700007A898A7A0A7A8A7B2A7BCA7C6A7D5A756
:10018000DFA707A8E9A7F3A7FDA7084AD73B3BCEFF
:10019000016E84BCBFFDC12F3D6C74319ABD568386
:1001A0003DDA3D00C77F11BED9E4BB4C3E916BAA3E
:1001B000AABE000000803F05A84CCDB2D44EB9388D
:1001C00036A9020C50B9918688083CA6AAAA2ABE74
:1001D000000000803F004E414E494E495459494E5F
:1001E00046CDCCCC3D0AD7233C17B7D13877CC2BA2
:1001F000329595E6241FB14F0A000020410000C847
:100200004200401C4620BCBE4CCA1B0E5AAEC59DC7
:100210007420746F6F206C6F6E67206578747275D0
:1002200073696F6E2070726576656E7465640A001E
:1002300020636F6C6420657874727573696F6E20CB
:1002400070726576656E7465640A00536C656570DE
:100250002E2E2E004A3034003344205072696E74C2
:1002600065722072656164792E00526573756D69DF
:100270006E67207072696E74005761697420666FD2
:100280007220757365722E2E2E004E6F206D6F7664
:10029000652E00456E642066696C65206C69737418
:1002A0000A00426567696E2066696C65206C697337
:1002B000740A005344207072696E74696E6720621C
:1002C00079746520004E6F74205344207072696EFB
:1002D00074696E670A0046696C652064656C6574B4
:1002E00065643A0044656C6574696F6E2066616987
:1002F0006C65642C2046696C653A20006F70656EF1
:10030000206661696C65642C2046696C653A200042
:100310002569730025696D202569730025696820AA
:1003200025696D2025697300256964202569682089
:1003300025696D2025697300256979202569642068
:100340002569682025696D20256973005072696EE2
:10035000742074696D653A200048656174696E6740
:100360002E2E2E003344205072696E7465722072F6
:10037000656164792E004B494C4C45442E20006F3A
:100380006B004A3033004A3034004A303700486549
:100390006174696E6720646F6E652E003F0A0020ED
:1003A000573A004A30360048656174696E672E2EF0
:1003B0002E003344205072696E746572207265613C
:1003C00064792E0042656420646F6E652E004A30A9
:1003D00039003F0A0020573A0042656420486561B1
:1003E00074696E672E004A303800334420507269B9
:1003F0006E746572204F66662E004649524D574115
:1004000052455F4E414D453A4D61726C696E2031E7
:100410002E312E302D52433820284769746875627A
:100420002920534F555243455F434F44455F555232
:100430004C3A68747470733A2F2F676974687562E8
:100440002E636F6D2F4D61726C696E4669726D77A8
:100450006172652F4D61726C696E2050524F544F1E
:10046000434F4C5F56455253494F4E3A312E302040
:100470004D414348494E455F545950453A33442015
:100480005072696E746572204558545255444552F5
:100490005F434F554E543A3120555549443A6365B0
:1004A0006465326132662D343161322D343734382F
:1004B0002D396231322D6335356336326633363746
:1004C00066660A007A325F6D696E3A20007A5F6D67
:1004D000696E3A2000795F6D696E3A2000785F6D31
:1004E000696E3A20005265706F7274696E6720659C
:1004F0006E6473746F70207374617475730A004D49
:1005000031343520533C696E6465783E206F7574D4
:10051000206F662072616E67652028302D31290AB0
:100520000053657474696E672054726176656C203F
:10053000416363656C65726174696F6E3A20005344
:10054000657474696E6720526574726163742041CA
:100550006363656C65726174696F6E3A2000536500
:100560007474696E67205072696E742041636365AC
:100570006C65726174696F6E3A20005365747469BA
:100580006E67205072696E7420616E6420547261CF
:1005900076656C20416363656C65726174696F6E2A
:1005A0003A20005A20456E6473746F702041646A6B
:1005B0007573746D656E742073657420746F202874
:1005C0006D6D293A00205A00205900580020204D16
:1005D00061783A2000205A00205900580020204D10
:1005E000696E3A20004F6E20004F666600536F66BA
:1005F0007420656E6473746F70733A200020643ADF
:100600000020693A0020703A0043290A0061626CB8
:10061000656420286D696E2074656D702000436FDD
:100620006C642065787472756465732061726520EE
:100630000023646566696E65202044454641554C3B
:10064000545F4B64200023646566696E6520204416
:10065000454641554C545F4B6920002364656669EB
:100660006E65202044454641554C545F4B70200038
:10067000504944204175746F74756E652066696ECB
:100680006973686564212050757420746865206CF6
:10069000617374204B702C204B6920616E64204B79
:1006A0006420636F6E7374616E74732066726F6D15
:1006B0002062656C6F7720696E746F20436F6E6681
:1006C000696775726174696F6E2E680A00504944DB
:1006D000204175746F74756E65206661696C656420
:1006E000212074696D656F75740A0050494420417A
:1006F00075746F74756E65206661696C6564212020
:1007000054656D706572617475726520746F6F20C9
:10071000686967680A00204B643A2000204B693AF8
:100720002000204B703A20000A20436C61737369EB
:100730006320504944200A002054753A2000204B81
:10074000753A2000206D61783A2000206D696E3A7C
:10075000200020643A200020626961733A20004F33
:10076000666673657473206170706C6965640045BA
:1007700072723A20546F6F206661722100546F6F5D
:10078000206661722066726F6D20726566657265A3
:100790006E636520706F696E740A004163746976D8
:1007A000652045787472756465723A2000556E6BE9
:1007B0006E6F776E20636F6D6D616E643A202200FC
:1007C0004A3032004A31360056312E312E35004A39
:1007D000333320004A3032004A313200473930008A
:1007E0004731204525694635303000473120452DB9
:1007F000302E314625690047312045302E314625BF
:1008000069004731205A2569462569004731205A39
:100810002D302E31462569004731205A302E314681
:10082000256900473120592569462569004731204F
:10083000592D302E314625690047312059302E314F
:10084000462569004731205825694625690047310A
:1008500020582D302E314625690047312058302E42
:100860003146256900473931004732380047323870
:10087000205A00473238205900473238205800416A
:1008800032305620004F4B004A3036004D3834008D
:100890004A3034004A3136004A303500454E440073
:1008A000464E20004A3032003939393A3939390058
:1008B0004D0048004137562000413656202D2D2D41
:1008C0000041365620005A3A2000593A2000583A42
:1008D0002000413556004134562000413356200057
:1008E000413256200041315620004130562000450B
:1008F000525220004D313130004A3130004B494CCA
:100900004C45442E2000202D20496E76616C696490
:10091000206578747275646572206E756D6265729B
:1009200020210A002020506C616E6E65724275664F
:1009300066657242797465733A2000204672656577
:10094000204D656D6F72793A2000436F6D70696C50
:1009500065643A204D617920313320323031390AD3
:1009600000207C20417574686F723A20284A6F6CB1
:100970006C792C2078787878787878782E434F2E98
:10098000290A00323031362D31322D3036203132C5
:100990003A303000204C6173742055706461746586
:1009A000643A2000312E312E302D5243380A005641
:1009B000312E312E350A0020536F667477617265CF
:1009C0002052657365740A00205761746368646F10
:1009D000672052657365740A002042726F776E203B
:1009E0006F75742052657365740A002045787465CC
:1009F000726E616C2052657365740A00506F776582
:100A00007255700A004A3132004A313700737461FE
:100A100072740A004731205A2B32300047393100B6
:100A20006572726F722077726974696E6720746F75
:100A30002066696C650A004A3132004A3033004A48
:100A4000313800446F6E6520736176696E67206689
:100A5000696C652E0A004D32390024F4D43050C33D
:100A60008E20C2A24017828B7011127A910D816C78
:100A7000D90AA861E108C7586607615143061E4BB1
:100A80005D05C145A7041A411104093D9803713958
:100A900031034036DB0265339102D4305402802E9C
:100AA0001D02632CEE01752AC501B028A001102794
:100AB00081018F2564012B244B01E0223401AC21FC
:100AC0001F018D200D01801FFC00841EED00971D6D
:100AD000DF00B81CD200E61BC600201BBC00641A55
:100AE000B200B219A8000A19A0006A189900D1171B
:100AF000910040178B00B516840031167E00B315A7
:100B000079003A157300C7146F0058146A00EE1389
:100B100066008813630025135E00C7125B006C1229
:100B2000570015125400C111510070114F002111CE
:100B30004B00D61049008D104700461044000210AB
:100B40004200C00F4000800F3E00420F3C00060FE5
:100B50003B00CB0E3800930E37005C0E3500270E9D
:100B60003400F30D3200C10D3100900D3000600DE6
:100B70002E00320D2D00050D2C00D90C2B00AE0CD3
:100B80002900850C29005C0C2700350C27000E0C71
:100B90002600E80B2400C40B2400A00B23007D0BCF
:100BA00023005A0B2100390B2100180B2000F80AF2
:100BB0001F00D90A1E00BB0A1E009D0A1D00800AE4
:100BC0001D00630A1C00470A1B002C0A1B00110AA7
:100BD0001A00F7091A00DD091900C4091900AB0948
:100BE0001900920917007B091800630917004C09C6
:100BF000160036091600200916000A091500F50826
:100C00001500E0081400CC081400B8081400A4086B
:100C10001400900813007D0812006B081300580898
:100C200012004608120034081100230811001208AF
:100C3000110001081100F0071000E0071000D007B4
:100C40001000C0071000B0070F00A10710009107A7
:100C50000E0083070F0074070F0065070E0057078B
:100C60000E0049070E003B070D002E070E0020075F
:100C70000D0013070D0006070D00F9060C00ED0628
:100C80000D00E0060C00D4060C00C8060C00BC06E3
:100C90000C00B0060C00A4060B0099060C008D0693
:100CA0000B0082060B0077060B006C060B0061063A
:100CB0000A0057060B004C060A0042060A003806D6
:100CC0000A002E060A0024060A001A060A00100668
:100CD000090007060A00FD050900F4050900EB05F7
:100CE0000900E2050900D9050900D0050900C7057A
:100CF0000900BE050900B5050800AD050800A505F9
:100D000009009C050800940508008C05080084056E
:100D100008007C050800740508006C0507006505DF
:100D200008005D050700560508004E050700470549
:100D300007004005080038050700310507002A05AF
:100D40000700230507001C050600160507000F0510
:100D500007000805060002050700FB040600F5046D
:100D60000700EE040600E8040600E2040700DB04C6
:100D70000600D5040600CF040600C9040600C3041B
:100D80000600BD040600B7040600B1040500AC046B
:100D90000600A6040600A00405009B0406009504B6
:100DA0000500900406008A040500850405008004FF
:100DB00006007A04050075040500700405006B0444
:100DC000050066040500610405005C040500570485
:100DD0000500520405004D040500480405004304C5
:100DE00005003E0404003A04050035040500300403
:100DF00004002C04050027040400230405001E043D
:100E000004001A04040016040500110404000D0473
:100E10000400090405000404040000040400FC03A9
:100E20000400F8030400F4030400F0030400EC03DE
:100E30000400E8030400E4030400E0030400DC030E
:100E40000400D8030400D4030400D0030400CC033E
:100E50000400C8030300C503030024F404D9201BC5
:100E6000C40C5C0E9804C4095F0265077101F405A7
:100E7000F900FB04B30048048700C103690058036C
:100E8000550003034500BE023A00840231005302BC
:100E90002A002902250004022000E4011C00C801E8
:100EA0001900AF01170098011400840113007101AB
:100EB00010006101100051010E0043010D003601C8
:100EC0000B002B010B0020010B00150109000C0188
:100ED000090003010800FB000800F3000800EB0014
:100EE0000700E4000600DE000600D8000600D2007D
:100EF0000600CC000500C7000500C2000500BD00CB
:100F00000400B9000400B5000400B1000400AD0005
:100F10000400A9000400A5000300A20003009F0034
:100F200004009B000300980003009500020093005A
:100F30000300900003008D0002008B000300880076
:100F400002008600020084000300810002007F008E
:100F500002007D0002007B000200790002007700A1
:100F600001007600020074000200720001007100AE
:100F700002006F0002006D0001006C0002006A00B8
:100F800001006900020067000100660001006500C1
:100F900001006400020062000100610001006000C5
:100FA00001005F0002005D0001005C0001005B00C9
:100FB00001005A00010059000100580001005700CB
:100FC00001005600010055000100540001005300CB
:100FD00000005300010052000100510001005000C8
:100FE00001004F0001004E0000004E0001004D00C6
:100FF00001004C0001004B0000004B0001004A00C2
:1010000001004900010048000000480001004700BD
:1010100001004600000046000100450000004500B8
:1010200001004400010043000000430001004200B1
:1010300000004200010041000000410001004000AA
:1010400001003F0000003F0001003E0000003E00A4
:1010500001003D0000003D0001003C0000003C009C
:1010600000003C0001003B0000003B0001003A0092
:1010700000003A000100390000003900010038008A
:101080000000380000003800010037000000370081
:101090000100360000003600000036000100350077
:1010A000000035000000350001003400000034006D
:1010B0000000340001003300000033000000330062
:1010C0000100320000003200000032000100310057
:1010D000000031000000310001003000000030004D
:1010E0000000300001002F0000002F0000002F0042
:1010F00000002F0001002E0000002E0000002E0036
:1011000001002D0000002D0000002D0000002D002A
:1011100001002C0000002C0000002C0000002C001E
:1011200001002B0000002B0000002B0000002B0012
:1011300001002A0000002A0000002A0000002A0006
:1011400001002900000029000000290000002900FA
:1011500000002900010028000000280000002800ED
:1011600000002800000028000100270000002700E0
:1011700000002700000027000000270001002600D3
:1011800000002600000026000000260000002600C7
:1011900001002500000025000000250000002500BA
:1011A00000002500000025000100240000002400AC
:1011B000000024000000240000002400010023009F
:1011C0000000230000002300000023000000230093
:1011D0000000230000002300010022000000220084
:1011E0000000220000002200000022000000220077
:1011F000010021000000210000002100000021006A
:10120000000021000000210000002100010020005A
:10121000000020000000200000002000000020004E
:1012200000002000000020000000200001001F003E
:1012300000001F0000001F0000001F0000001F0032
:1012400000001F0000001F0001001E0000001E0023
:1012500000001E0000001E0000004D383420582001
:1012600059205A2045006265640A002C2073797366
:1012700074656D2073746F707065642120486561BA
:101280007465725F49443A200048656174696E670D
:10129000206661696C65640048656174696E6720E9
:1012A0006661696C65640048656174696E67206693
:1012B00061696C65640048656174696E6720666188
:1012C000696C6564004A31300070012C019001277F
:1012D00001B0012201C0011D01F00118011002132B
:1012E0000130020E016002090190020401C002FFF8
:1012F000000003FA004003F5008003F000D003EB88
:10130000002004E6007004E100E004DC004005D7A2
:1013100000C005D2004006CD00D006C8008007C33B
:10132000003008BE00F008B900C009B400B00AAF30
:1013300000B00BAA00D00CA500000EA000500F9B1F
:1013400000C01096005012910000148C00C0158748
:1013500000B0178200B0197D00D01B7800001E730A
:101360000040206E0090226900F024640040275F56
:101370000090295A00E02B5500102E500020304BD1
:101380000010324600E033410090353C0010373702
:101390000070383200A0392D00B03A2800A03B235D
:1013A00000603C1E00103D1900903D1400103E0FDF
:1013B00000703E0A00C03E0500003F00004D6F7601
:1013C000652058004D6F76652059004D6F76652079
:1013D0005A00457874727564657200457874727548
:1013E000646572004D6F7665205A004D6F766520FA
:1013F00059004D6F76652058004D6F7665206178F5
:101400006973004D6F766520302E316D6D004D6F24
:10141000766520316D6D004D6F76652031306D6DD4
:10142000005072657061726500526573746F726509
:10143000206661696C73616665004C6F6164206D44
:10144000656D6F72790053746F7265206D656D6F95
:1014500072790046696C616D656E74004D6F7469D8
:101460006F6E0054656D7065726174757265004DC4
:1014700061696E0050726568656174204142532055
:10148000636F6E66005072656865617420504C41F0
:1014900020636F6E66005049442D44005049442D2E
:1014A00044005049442D49005049442D49005049B9
:1014B000442D50005049442D5000200220466163C5
:1014C000740020022046616374002002204D617880
:1014D000002002204D6178002002204D696E00201E
:1014E00002204D696E004F6666004F6E2000417508
:1014F000746F74656D700046616E2073706565640D
:101500000046616E20737065656400426564004248
:101510006564004E6F7A7A6C65004E6F7A7A6C65FE
:1015200000436F6E74726F6C0053746F7265206D40
:10153000656D6F72790042656400426564004E6FAC
:101540007A7A6C65004E6F7A7A6C650046616E201F
:1015500073706565640046616E2073706565640034
:1015600054656D7065726174757265004572726F55
:10157000722077726974696E6720746F20454550D8
:10158000524F4D210A00206279746573290A005375
:10159000657474696E67732053746F726564202874
:1015A00000454550524F4D20636865636B73756D00
:1015B000206D69736D617463680A002062797465D7
:1015C00073290A002073746F7265642073657474E4
:1015D000696E677320726574726965766564202828
:1015E000004A303100436172642072656D6F766528
:1015F00064004A3030004361726420696E73657222
:101600007465640000002100240027002A002D00DA
:101610003000330001010000040107010A0100004D
:1016200020002300260029002C002F00320000019A
:10163000000003010601090100000A0B02090C0D5C
:101640000E08070304010000000000000000000075
:10165000000000000000000000000000000000008A
:101660000000000012111000000000000000000047
:1016700000000000000000000000000000005772A1
:101680006974696E6720746F2066696C653A200022
:101690004A3231006F70656E206661696C65642C3A
:1016A0002046696C653A20004A3231006F70656EE1
:1016B000206661696C65642C2046696C653A20007F
:1016C0004A32300046696C652073656C65637465E9
:1016D000640A002053697A653A200046696C6520E7
:1016E0006F70656E65643A20004A3231006F706534
:1016F0006E206661696C65642C2046696C653A20D1
:10170000002066696C653A20004E6F772000222029
:10171000706F73002220706172656E743A220053FC
:101720005542524F5554494E452043414C4C20742C
:1017300061726765743A22004B494C4C45442E2037
:1017400000747279696E6720746F2063616C6C201D
:101750007375622D67636F64652066696C657320BD
:101760007769746820746F6F206D616E79206C6585
:1017700076656C732E204D4158206C6576656C2023
:1017800069733A004E6F20534420636172640050C5
:1017900072696E742066726F6D2053440053746FCB
:1017A00070207072696E7400526573756D6520707B
:1017B00072696E74005061757365207072696E7421
:1017C00000436F6E74726F6C005072657061726569
:1017D0000054756E6500496E666F207363726565AF
:1017E0006E00466C6F7700466C6F770046616E2026
:1017F00073706565640046616E2073706565640092
:1018000042656400426564004E6F7A7A6C65004EF2
:101810006F7A7A6C65005370656564005370656516
:1018200064004D61696E0050726568656174205096
:101830004C412042656400507265686561742050B7
:101840004C41005072657061726500507265686548
:10185000617420414253204265640050726568659E
:101860006174204142530050726570617265004D91
:1018700034323800436F6F6C646F776E005072655E
:1018800068656174204142530050726568656174F7
:1018900020504C41004D38340044697361626C65DE
:1018A000207374657070657273004D6F766520618A
:1018B0007869730053657420686F6D65206F666684
:1018C0007365747300473238004175746F20686F18
:1018D0006D65004D61696E00506C656173652072C5
:1018E00065736574005052494E5445522048414C2E
:1018F000544544005072696E7465722068616C745E
:1019000065642E206B696C6C28292063616C6C65A2
:1019100064210A000000A0C00000000000000000D8
:101920005761726E696E673A20486F6D696E672005
:1019300042756D702044697669736F72203C203166
:101940000A000000A0400000A0400000004000008D
:101950005C430000574300004E43FFFFFF7C3C3ECA
:101960005E2B3D3F2F5B5D3B2C2A225C005448459B
:10197000524D414C2052554E4157415900546865D3
:10198000726D616C2052756E61776179004A3130F9
:10199000004572723A204D415854454D5020424501
:1019A00044004572723A204D415854454D50004D07
:1019B000415854454D50207472696767657265647B
:1019C000004572723A204D494E54454D50204245D3
:1019D00044004572723A204D494E54454D50004DD9
:1019E000494E54454D50207472696767657265644D
:1019F0000025753A2530327500253032753A25308C
:101A00003275002D2D2D005344005A005900580006
:101A10000120000120001000C90210012C0140012A
:101A2000220170011801B0010E01F0010401500201
:101A3000FA00B002F0003003E600D003DC009004AE
:101A4000D2007005C800A006BE000008B400B009AE
:101A5000AA00D00BA000600E960060118C0000154B
:101A6000820020197800C01D6E00A0226400B027FB
:101A70005A00902C500000314600E0343C001038F1
:101A80003200903A2800603C1E00A03D1400803EC9
:101A90000A00203F0000656E7175657565696E67A7
:101AA0002022006563686F3A0001021020200808B8
:101AB00010204010204080020102010804020101B0
:101AC0000204081020408080402010080402018099
:101AD00004020180402010080402010804020101F0
:101AE00002040810204080010204081020408000F9
:101AF000002200250028002B002E003100340002B7
:101B0000010000050108010B010505050507050891
:101B1000080808020202020A0A0808040404040170
:101B20000101010101010103030303030303030492
:101B30000707070C0C0C0C0C0C0C0C020202020622
:101B4000060606060606060B0B0B0B0B0B0B0B0211
:101B500020746F6F206C6F6E672065787472757378
:101B6000696F6E2070726576656E7465640A004AEE
:101B700031330020636F6C6420657874727573690B
:101B80006F6E2070726576656E7465640A00434FEF
:101B90004D4D554E49434154494F4E0044525952C0
:101BA000554E004552524F525300494E464F004544
:101BB00043484F0020496E76616C696420657874F3
:101BC000727564657220000000574300005743009F
:101BD000004E430000A0C0000000000000000047CD
:101BE000322F47332062616420706172616D6574C9
:101BF0006572730A002042403A0020403A00202FCC
:101C00000020423A00202F0020543A00AF1BAA1BAC
:101C1000A31B9C1B8E1B6F66660044454255473ACA
:101C200000205A3A0020593A0020436F756E742004
:101C3000583A200020453A00205A3A0020593A00EC
:101C4000583A0046696C2E204469612E0046696C42
:101C50002E204469612E004F6666004F6E200045BD
:101C600020696E206D6D3300436F6E74726F6C006F
:101C700043616E6E6F7420656E7465722073756259
:101C80006469723A2000052E2E004D61696E004E87
:101C90006F204C696E65204E756D626572207769A4
:101CA000746820636865636B73756D2C204C617379
:101CB00074204C696E653A20004B494C4C45442ECB
:101CC000200053544F505045442E20005072696EEE
:101CD0007465722073746F7070656420647565201C
:101CE000746F206572726F72732E2046697820744B
:101CF0006865206572726F7220616E64207573650D
:101D0000204D39393920746F207265737461727493
:101D10002E202854656D7065726174757265206936
:101D2000732072657365742E205365742069742066
:101D300061667465722072657374617274696E672E
:101D4000290A004E6F20436865636B73756D2077B9
:101D5000697468206C696E65206E756D6265722CA1
:101D6000204C617374204C696E653A20006368658D
:101D7000636B73756D206D69736D617463682C207E
:101D80004C617374204C696E653A20004C696E6535
:101D9000204E756D626572206973206E6F74204CE1
:101DA000617374204C696E65204E756D6265722B8F
:101DB000312C204C617374204C696E653A20004DC3
:101DC000313130004A3134004D3331004D38342048
:101DD000582059205A2045005344207265616420E0
:101DE0006572726F720A00446F6E65207072696E60
:101DF00074696E672066696C650A00526573656E6A
:101E0000643A20006F6B004A3135004A3233004B90
:101E1000494C4C45442E20004B494C4C45442E2007
:101E2000004573746570732F6D6D00457374657034
:101E3000732F6D6D005A73746570732F6D6D005A3A
:101E400073746570732F6D6D005973746570732FA3
:101E50006D6D005973746570732F6D6D00587374D8
:101E60006570732F6D6D005873746570732F6D6D91
:101E700000412D74726176656C00412D747261763B
:101E8000656C00412D7265747261637400412D723E
:101E900065747261637400416D6178204500416D25
:101EA0006178204500416D6178205A00416D61786C
:101EB000205A00416D6178205900416D61782059A8
:101EC00000416D6178205800416D617820580056BE
:101ED00054726176206D696E005654726176206D81
:101EE000696E00566D696E00566D696E00566D61C3
:101EF00078204500566D6178204500566D61782048
:101F00005A00566D6178205A00566D61782059004C
:101F1000566D6178205900566D6178205800566DD5
:101F2000617820580056652D6A65726B0056652DE4
:101F30006A65726B00567A2D6A65726B00567A2D4F
:101F40006A65726B0056792D6A65726B0056792D41
:101F50006A65726B0056782D6A65726B0056782D33
:101F60006A65726B00416363656C00416363656C15
:101F700000436F6E74726F6C0048617264636F64CB
:101F800065642044656661756C742053657474697A
:101F90006E6773204C6F616465640A0020204D32C7
:101FA00030302044300A0020204D323030204400B0
:101FB0002044697361626C65640A0046696C616DF6
:101FC000656E742073657474696E67733A0020449B
:101FD0000020490020204D3330312050005049442A
:101FE0002073657474696E67733A0A002046002096
:101FF000420020480020204D3134352053004D61EF
:1020000074657269616C20686561747570207061B7
:1020100072616D65746572733A0A0020204D363620
:1020200036205A005A3220456E6473746F702061F6
:10203000646A7573746D656E7420286D6D293A0A33
:1020400000205A0020590020204D32303620580000
:10205000486F6D65206F666673657420286D6D2905
:102060000A00204500205A00205900205800204234
:102070000020540020204D3230352053004164763A
:10208000616E636564207661726961626C65733A42
:1020900020533D4D696E20666565647261746520EC
:1020A000286D6D2F73292C20543D4D696E2074725C
:1020B0006176656C20666565647261746520286D63
:1020C0006D2F73292C20423D6D696E696D756D20F1
:1020D0007365676D656E742074696D6520286D7316
:1020E000292C20583D6D6178696D756D20585920F7
:1020F0006A65726B20286D6D2F73292C20205A3D44
:102100006D6178696D756D205A206A65726B202843
:102110006D6D2F73292C2020453D6D6178696D759B
:102120006D2045206A65726B20286D6D2F73290A1A
:102130000020540020520020204D32303420500026
:10214000416363656C65726174696F6E733A2050A8
:102150003D7072696E74696E672C20523D726574B1
:102160007261637420616E6420543D74726176659F
:102170006C0A00204500205A0020590020204D32D2
:1021800030312058004D6178696D756D2041636371
:10219000656C65726174696F6E20286D6D2F733286
:1021A000293A0A00204500205A0020590020204DDD
:1021B0003230332058004D6178696D756D20666549
:1021C0006564726174657320286D6D2F73293A0AF6
:1021D00000204500205A0020590020204D3932208F
:1021E000580053746570732070657220756E697441
:1021F0003A0A00473930004731205A2D3230005317
:10220000442063617264206F6B0A006F70656E52C8
:102210006F6F74206661696C65640A00766F6C7517
:102220006D652E696E6974206661696C65640A006B
:102230004572726F723A00534420696E6974206669
:1022400061696C0A006175746F25692E67004D32F3
:1022500034004D32332025730000D7C696C61124B2
:102260001FBECFEFD1E2DEBFCDBF00E00CBF14E058
:10227000A0E0B2E0ECE0FCEA01E00BBF02C0079096
:102280000D92AA3CB107D9F725E1AAECB4E001C050
:102290001D92AD3FB207E1F711E1CEE2D1E100E0DE
:1022A00006C021970109802FFE010E9455D5CD322D
:1022B000D10780E00807A9F70E9429BE0C94F5D544
:1022C0000C9400002F923F924F925F926F927F92F8
:1022D0008F929F92AF92BF92CF92DF92EF92FF9236
:1022E0000F931F93CF93DF93CDB7DEB7C457D109B8
:1022F0000FB6F894DEBF0FBECDBF0091400820E6B8
:10230000029F800111240054194F1093FA04009386
:10231000F9048091521280FF18C0E3EAFAE1849137
:102320007F013FEFE31AF30A882321F00E9420BCCB
:10233000F701F5CFD8018D918D01882319F00E9406
:1023400020BCF8CF8AE00E9420BC2091F904309193
:10235000FA04F90180812F5F3F4F8032D1F3F0936F
:10236000FA04E093F9048E3469F0D090F904C09037
:10237000FA046AE270E08D2D9C2D0E94A3D500978F
:10238000D1F420C0818190ED980F9A3010F08D32F9
:1023900061F73296DF0131962C9120532A30D0F329
:1023A000CD01FC01019620812032D9F3F093FA048B
:1023B000E093F904DACFFC0131968291803231F05A
:1023C0008A3221F0AD2DBC2D9D9102C01082F5CF37
:1023D000FD01808111968032D9F380538A3010F04C
:1023E0000C94D52A00E010E02AE0209FB001219F44
:1023F000700D11248B01005311098191080F111DDB
:1024000087FD1A95808180538A3078F37F01319659
:10241000D7018C918032D1F3F092F204E092F10472
:102420009D3409F4B6C3943511F40C949D28973467
:1024300011F00C94D52A0430110509F438C128F4A0
:102440000230110508F02AC119C00A35110509F436
:1024500020C350F40530110509F467C10C31110592
:1024600009F4F3C10C94DE280B35110509F415C3EA
:102470000C35110509F416C30C94DE288091110265
:10248000882311F40C94DE280E94E4928091DB04EE
:102490008130B1F48091E104882391F020E030E0B4
:1024A00040EA51E46091EE0D7091EF0D8091F00DD6
:1024B0009091F10D0E9433CE87FF02C00C94DE286C
:1024C00082EE9DE00E948EA90E9415BC809152125E
:1024D00083FD93C0C090EE0DD090EF0DE090F00D15
:1024E000F090F10D2091B5063091B6064091B706F7
:1024F0005091B806C701B6010E9433CE882309F473
:102500007CC080914D12811134C02091DE02309147
:10251000DF024091E0025091E1026091850E7091DE
:10252000860E8091870E9091880E0E9433CE87FF91
:1025300020C0C092B506D092B606E092B706F092DF
:10254000B806E3EAFAE184918F010F5F1F4F8823F9
:1025500021F00E9420BCF801F6CFE0E3F2E0849184
:102560008F010F5F1F4F882321F00E9420BCF801CC
:10257000F6CFC090EE0DD090EF0DE090F00DF09002
:10258000F10D2091B5063091B6064091B7065091F5
:10259000B806C701B6010E9449D20E948ED397FFA8
:1025A00007C090958095709561957F4F8F4F9F4F95
:1025B000693C71058105910504F1C092B506D09280
:1025C000B606E092B706F092B806E3EAFAE1849123
:1025D0008F010F5F1F4F882321F00E9420BCF8015C
:1025E000F6CFE1E1F2E084918F010F5F1F4F882366
:1025F00021F00E9420BCF801F6CF2091E20D30912D
:10260000E30D4091E40D5091E50D6091A9067091A4
:10261000AA068091AB069091AC060E9433CE811140
:102620001DC02091E60D3091E70D4091E80D5091CD
:10263000E90D6091AD067091AE068091AF06909164
:10264000B0060E9433CE811109C0609100027091E2
:10265000010280910202909103021AC0609141022E
:1026600070914202072E000C880B990B0E9439CE04
:102670002091000230910102409102025091030228
:102680000E9498CE2AE037ED43E25CE30E9498CEA8
:102690000E94B4980E94BC930C94DE2881E0023022
:1026A000110509F080E00E94C6930C94DE2880E5B5
:1026B0000E944EA0882329F00E94BBA06B017C01E0
:1026C00003C0C12CD12C760183E50E944EA0882343
:1026D00021F00E94EFA06B017C010E9469390E94E9
:1026E00015BC80916D1390916E13A0916F13B091F2
:1026F0007013C80ED91EEA1EFB1E8091A002811124
:1027000005C060E08BE492E00E941D5C0E94D454FE
:10271000DC01CB018C199D09AE09BF09B7FD02C0D0
:102720000C94DE280E9447A5F1CF8C9A8091E20498
:102730008823C1F0E4E5F2E084918F01882351F011
:10274000082E000C990B0E944B820F5F1F4FF8015F
:102750008491F4CF8DE090E00E944B828AE090E07B
:102760000E944B828091E104882309F468C084E1CF
:1027700090E099A388A344E0BE016F5F7F4FCE0134
:1027800080960E94894944E06DED74E0CE01809608
:102790000E94894944E06AEC74E0CE0180960E9470
:1027A000894944E06EEC74E0CE0180960E9489492C
:1027B00044E062ED74E0CE0180960E94894944E0D5
:1027C00066ED74E0CE0180960E9489498091DD0417
:1027D0009091DE04A091DF04B091E004853691056C
:1027E000A105B1055CF00597A109B1098093DD044D
:1027F0009093DE04A093DF04B093E0044091DD04E5
:102800005091DE046091DF047091E00440931B124C
:1028100050931C1260931D1270931E128AE691E170
:102820000E94A74F81E08093DC048093DB04109228
:10283000E10482EB90E090939C0D80939B0D669B4E
:1028400002C00C94E1280C94DE280E946939409063
:1028500000025090010260900202709003024092C8
:10286000F5045092F6046092F7047092F804809197
:102870004102909142029093F4048093F30484E621
:1028800090E090934202809341020E9415BC11E0B7
:1028900010930B0288E50E944EA0282E89E50E9425
:1028A0004EA0082F8AE50E944EA0382E211005C0A8
:1028B000011105C0982F912705C0011102C090E0B9
:1028C00001C0982F9093040280E1E9EAF6E0A2EEBD
:1028D000BDE001900D928A95E1F7911105C021109C
:1028E00003C0002309F493C020E030E040E85FE338
:1028F0006091A5067091A6068091A7069091A80602
:102900000E944AD22091DE0D3091DF0D4091E00D02
:102910005091E10D0E944AD26B017C016093EA0D57
:102920007093EB0D8093EC0D9093ED0D8090B106BC
:102930009090B206A090B306B090B406A5019401A1
:102940000E9470D418160CF062C0A7019601C50150
:10295000B4010E9433CE87FF16C080E090E0A0EC67
:10296000B0E48093000290930102A0930202B0931E
:102970000302C092B106D092B206E092B306F09282
:10298000B4060E94CD9885E595E5A5E0B3E4809373
:10299000000290930102A0930202B09303020E94EE
:1029A000CD98C090EA0DD090EB0DE090EC0DF0903A
:1029B000ED0DA70196016091B1067091B20680916C
:1029C000B3069091B4060E9470D41816B4F480E057
:1029D00090E0A0ECB0E48093000290930102A093F9
:1029E0000202B0930302C092B106D092B206E09206
:1029F000B306F092B4060E94CD980E9469394092C5
:102A000000025092010260920202709203028091D1
:102A10000402811102C0222021F080E090E00E9497
:102A2000FF7280910402811102C0002321F081E035
:102A300090E00E94FF7280910402811102C0332055
:102A400021F082E090E00E94FF720E94F2A4809147
:102A5000E01380930B028091F5049091F604A0910D
:102A6000F704B091F8048093000290930102A093C0
:102A70000202B09303028091F3049091F4049093C6
:102A80004202809341020E9415BC0E9417910C944F
:102A9000DE281092F0040C94DE2881E08093F0048C
:102AA0000C94DE2885E40E944EA0B82E811102C04D
:102AB0000E9469398EEE882E82E0982E99EAC92EFE
:102AC00096E0D92E26EDE22E2DE0F22E00E010E069
:102AD000A12CD4018D914D010E944EA08823F1F1CB
:102AE000F6012081318142815381AE962FAFAE979E
:102AF000AF963FAFAF97E0964FAFE097E1965FAFED
:102B0000E1970E94C6A0D6016D937D938D939C930F
:102B10001397AE962FADAE97AF963FADAF97E096B9
:102B20004FADE097E1965FADE19703301105B1F04D
:102B30000E9449D29B01AC01F701608171818281C1
:102B400093810E944AD2D7016D937D938D939C937C
:102B50001397C8010E94EC98AA24A3940F5F1F4FFB
:102B6000B4E0CB0ED11CE4E0EE0EF11C04301105F4
:102B700009F0AFCFAA2019F00E94F2A406C0BB2032
:102B800021F085EB96E00E94FC620E9417910C9464
:102B9000DE280F36110509F444C508F0BBC00A321F
:102BA000110509F4CBC408F062C00731110509F41E
:102BB00068C288F50231110511F40C94131FE8F472
:102BC0000230110508F49DC10131110511F00C947A
:102BD000DE2860E08AE892E00E941D5C5F988A9897
:102BE00047989FB7F894809108018E7F80930801E1
:102BF0009FBF479812980C94DE280531110509F4FF
:102C000036C208F038C20431110511F00C94DE28E8
:102C1000E2EAF2E0E9C10B31110509F450C260F4B7
:102C20000931110509F434C208F03BC20E94BCB955
:102C30000E9437630C94DE280E31110509F47BC223
:102C400060F40C31110511F00C94DE2840E060E0D6
:102C5000C7010E94245F0C94DE280F31110509F48E
:102C6000C5C30032110509F473C30C94DE28053581
:102C7000110511F40C94421F00F50135110511F4F2
:102C80000C94F31E70F40C34110509F45BC40D347C
:102C9000110509F471C40B34110511F00C94DE28F0
:102CA0004DC40335110511F40C940E1F10F00C9453
:102CB000131F1092EF040C94DE280A36110511F44C
:102CC0000C94BC1EB0F40836110509F459C408F080
:102CD000B8C40C35110511F00C94DE287EEEC72E19
:102CE00072E0D72EE6EBEE2EEDE0FE2E10E00C9417
:102CF000551F0C36110509F498C410F40C94E11E0C
:102D00000D36110509F4BEC40E36110509F476C45A
:102D10000C94DE28033D110511F40C94A32208F055
:102D200077C00C38110509F488C460F50537110522
:102D300011F40C94E71F98F40237110511F40C9468
:102D4000D51F0337110511F40C94D91F0037110555
:102D500011F00C94DE2886E793E00E946274083735
:102D6000110511F40C9475200937110511F40C9418
:102D70007C200737110511F00C94DE28E5EEF4E015
:102D80000C94ED1F093C110511F40C94402180F4C2
:102D90000E3B110509F43AC6083C110511F40C94D8
:102DA000F7200139110511F00C94DE280C948220D3
:102DB0000C3C110511F40C94762180F40B3C1105A8
:102DC00011F00C94DE280BEBE02E03E1F02E0EEE5A
:102DD00012E084E0D82ED00E0C9467210D3C110532
:102DE00011F40C94E0210E3C110511F00C94DE2836
:102DF000AEEEAA2EA2E0BA2EB9EACB2EB6E0DB2EBA
:102E00001DE9E12E16E0F12E00E010E00C944B22BB
:102E10000A39F1E01F0709F40CC480F50C3231E0E7
:102E2000130711F40C948C2388F40D3D110511F453
:102E30000C944823023E110511F40C9461230C3DBF
:102E4000110511F00C94DE280C943B230E3251E056
:102E5000150711F40C945A2410F40C94BB230F3270
:102E600091E0190711F40C94CB240039114011F0B2
:102E70000C94DE280E9469390C94DE28063FB1E0EC
:102E80001B0711F40C948E2800F5043FF1E01F0796
:102E900011F40C94882810F00C948B280C3A1140F3
:102EA00011F00C94DE2889EA282E86E0382EADE950
:102EB000B6E0BCAFABAFEFEFFDE02196FFAFEEAFFA
:102EC000219700E010E00C948D270A3942E01407A6
:102ED00011F40C94842238F4073F114011F40C943F
:102EE00091280C94DE28003A93E0190709F474C283
:102EF000073E134011F00C94DE280E94B8900C9409
:102F0000DE2880E50E944EA0882359F00E94BBA0D5
:102F10004B015C0111E0672B682B692B31F410E049
:102F200004C010E0812C912C540183E50E944EA036
:102F3000882399F00E94EFA04B015C0111110FC092
:102F4000672B682B692B59F4F7018081882339F0AE
:102F500061E0C7010E94325C07C01123A9F360E061
:102F600089E792E00E941D5C81E08093E3040E9467
:102F700069390E9415BC81149104A104B104E9F0DF
:102F800080916D1390916E13A0916F13B091701397
:102F9000880E991EAA1EBB1E0E94D454DC01CB01D0
:102FA00088199909AA09BB09B7FF1AC08091E304DF
:102FB0008823B1F00E9447A5EFCF8091E3048823D6
:102FC00019F00E9447A5F9CF80919F0F60E08823F8
:102FD00019F08AE692E002C088E592E00E941D5C4A
:102FE0001092E3040C94DE2884918F010F5F1F4F31
:102FF000882321F00E9420BCF801F6CF1092251200
:103000001092241240E050E0BA0180ED9FE00E944F
:10301000A74F8BE1E0EDFFE0DE01159601900D92E8
:103020008A95E1F78091CE0F9091CF0F9C838B838F
:103030008CEA93E09A83898340E050E0BE016F5FA1
:103040007F4F83E794E00E94C45CCE0101960E940A
:103050005A74E3E9F2E084918F010F5F1F4F8823D8
:1030600011F40C94DE280E9420BCF801F4CF0E94D9
:1030700047B80C94DE2810929F0F1092A00F0C946A
:10308000DE2840E061E0C7010E94245F0C94DE2846
:1030900081E0809342088093E51310929F0F0C9477
:1030A000DE288091A00F882311F40C94DE2883E59C
:1030B0000E944EA081110C94F2280C94DE2880917D
:1030C000A00F882351F1E3EBF2E084918F010F5FB1
:1030D0001F4F882321F00E9420BCF801F6CF609199
:1030E0001B1270911C1280911D1290911E124AE0C9
:1030F0000E944DBC8FE20E9420BC6091171270911B
:1031000018128091191290911A124AE00E944DBC37
:103110008AE00E9420BC0C94DE28E5ECF2E0849169
:103120008F010F5F1F4F882311F40C94DE280E943B
:1031300020BCF801F4CF8091A00F882311F40C94E7
:10314000DE288AE691E10E94754F8AE691E10E94AD
:10315000F16C10929E0F10929D0FE090F104F09090
:10316000F2048091A00F882311F40C94DE280E94B1
:10317000195F1D8218861C821B828CEA93E09A8359
:1031800089838CEC9FE09093EC0F8093EB0FD70139
:103190008C918F3209F067C06FE270E0C7010E9426
:1031A000A3D58C010F5F1F4FFE0131964F01011512
:1031B000110509F45EC06FE270E0C8010E94A3D55A
:1031C0006C01009709F456C00817190708F052C09F
:1031D0005C01A01AB10AA501B801CE0180960E9437
:1031E000CCD5E0E2F0E0EC0FFD1FEA0DFB1D1082F4
:1031F0008E01005E1F4FD8018D918D01882319F03B
:103200000E9420BCF8CF8AE00E9420BC6091EB0FA6
:103210007091EC0F6115710511F06C5F7F4F21E02B
:10322000AE01405E5F4FCE0105960E94357181115F
:1032300012C0BE01605E7F4F8CEF92E00E9427BCFF
:103240008EE20E9420BC8AE00E9420BCC4010E9441
:103250005A740C94DE289092EC0F8092EB0F86014A
:103260000F5F1F4FA4CF8DEE9FE09093EC0F8093E4
:10327000EB0F87016091EB0F7091EC0F61157105F9
:1032800011F06C5F7F4F18A21BA222E0A801CE01B3
:1032900080960E943571811102C0F12C14C0CE01BC
:1032A00080960E94DAB98823C1F361E0CE0180964E
:1032B0000E94FA6C009789F325EEFC0120831BA283
:1032C0000E94854DF82ECE0180960E94E6BBFF201D
:1032D00009F1E6EDF2E084917F012FEFE21AF20AA4
:1032E000882321F00E9420BCF701F5CFD8018D91F1
:1032F0008D01882319F00E9420BCF8CF8AE00E943B
:1033000020BC10921B1210921C1210921D121092CF
:103310001E1218C0E4EEF2E084917F01BFEFEB1AB9
:10332000FB0A882321F00E9420BCF701F5CFF801A9
:1033300081918F01882319F00E9420BCF8CF8EE282
:103340000E9420BCCE0101960E945A740C94DE2883
:1033500080919F0F81110E9469390091F1041091B1
:10336000F20461E270E0C8010E94A3D5009719F051
:103370008C010F5F1F4F80E50E944EA0882349F00B
:10338000FF24F3948091E4049091E5048017910761
:1033900008F0F12C8091A00F882311F40C94DE2802
:1033A0004F2D61E0C8010E94245F83E50E944EA07A
:1033B000882349F08091E4049091E50480179107F7
:1033C00010F40C9403290E94BCB9F1100C94DE286F
:1033D0000E9437630C94DE2881E080939E0F40E0CA
:1033E00060E0C7010E94245F0C94DE280E9486B929
:1033F0000CE3C02ED12CE12CF12CA70196010E94E8
:103400000ED2762E672ECA01B901A70196010E943D
:103410000ED26B017C01CA01B90128E130E040E025
:1034200050E00E940ED24B015C01C9016DE671E0D3
:103430000E9412D58E010F5F1F4F6115710599F023
:103440006F927F92DF92CF929F928F929F938F93F2
:103450007F936F9388E393E09F938F931F930F93D2
:103460000E9404CE12C00097B1F06F927F92DF925B
:10347000CF929F928F929F938F9388E293E09F9336
:103480008F931F930F930E9404CE0FB6F894DEBF64
:103490000FBECDBF36C081149104A104B10479F0F0
:1034A0006F927F92DF92CF929F928F928CE193E006
:1034B0009F938F931F930F930E9404CEE6CFC11466
:1034C000D104E104F10469F06F927F92DF92CF9210
:1034D00084E193E09F938F931F930F930E9404CEF8
:1034E000D4CF6F927F9280E193E09F938F931F934D
:1034F0000F930E9404CE0F900F900F900F900F909B
:103500000F9060E0C8010E94325CE3EAFAE1849126
:103510007F01BFEFEB1AFB0A882321F00E9420BC39
:10352000F701F5CFB8018CE493E00E9427BC8AE054
:103530000E9420BC0E94ECBB0C94DE280E943763E2
:103540000C94DE2880918F0F9091900F019711F0CD
:103550000C94DE2882E090E09093900F80938F0F80
:103560000E94D4546093990F70939A0F80939B0F8D
:1035700090939C0F0C94DE280E94427D0C94DE28D0
:1035800088E690E00E94399981110C94DE288091A0
:10359000521283FF02C00C94DE2883E50E944EA0E5
:1035A000882341F10E94C6A00E9452740E94C6A0C6
:1035B00020E030E04AEA52E40E9433CE18163CF094
:1035C0000E94427D60E084E693E00E941D5C0E94C0
:1035D000C6A02091850E3091860E4091870E5091A5
:1035E000880E0E9470D418162CF460E089E593E0F0
:1035F0000E941D5C0E942DC80C94DE288EE40E945F
:103600004EA0882311F40C94DE280E943FC96093D9
:10361000E6047093E7048093E8049093E9040C9423
:10362000DE280E94EA910C94DE2810923E020C944F
:10363000DE280E94C9900C94DE280E94D6910C943A
:10364000DE2889E690E00E94399981110C94162BAE
:1036500080919F0F811103C081E08093BD06EFE749
:10366000F3E084918F010F5F1F4F882321F00E94A8
:1036700020BCF801F6CF0E945C928AE00E9420BC38
:103680000C94162B8DE690E00E94399981110C94D0
:10369000DE288091521283FF02C00C94DE2883E55D
:1036A0000E944EA024968FAF249781110C94152967
:1036B00082E50E944EA081110C94152908C08DE06E
:1036C00090E00E944B828AE090E00E944B820E9430
:1036D0002DC881E080933E0223961CAE1DAE1EAE27
:1036E0001FAE239729961CAE1DAE1EAE1FAE2997A6
:1036F0001BAE2A961FAE2A97FCE32B96FFAF2B97A3
:103700002CE12C962FAF2C9736E42E963FAF2E97B8
:10371000C12CD12CB0E8EB2E1FEBF12E812C912C7B
:1037200054016091830E7091840E072E000C880B5B
:10373000990B0E9439CE162F072F782E692E262F2F
:10374000372F482F592FB601C7010E9433CE882347
:1037500021F12091850E3091860E4091870E509177
:10376000880E612F702F872D962D0E9433CE881FD3
:103770008827881F8BAF24964FAD2497442389F068
:10378000882379F080913E02882309F4F3C060E039
:103790008EE893E00E941D5CEDC01C2D0D2D7E2C4B
:1037A0006F2C0E94D4546B017C01DC01CB01299663
:1037B0002CAD3DAD4EAD5FAD2997821B930BA40B95
:1037C000B50BB7FD47C0D701C60188519C4FAF4F1D
:1037D000BF4F29968CAF9DAFAEAFBFAF29970E9468
:1037E0005C92EFE9F3E084912F019FEF491A590AA7
:1037F000882321F00E9420BCF201F5CF81149104AE
:10380000A104B104D1F0D501C401805F984DAF4F40
:10381000BF4FBC01CD016C197D098E099F0928EEAF
:1038200033E040E050E00E940ED2CA01B9010E948C
:10383000CEBC8AE00E9420BC0DC0ECE9F3E084918C
:103840002F01AFEF4A1A5A0A882321F00E9420BCA8
:10385000F201F5CF0E9447A50E9415BC2090850E6D
:103860003090860E4090870E5090880E9101A201F4
:10387000612F702F872D962D0E9449D29F7781143A
:103880009104A104B10449F420E030E040E85FE392
:103890000E9433CE87FF0BC008C020E030E040E438
:1038A00050E40E9470D4181614F446015701BBADC1
:1038B000BB2309F443C023962CAD3DAD4EAD5FADA7
:1038C0002397211531054105510541F0D701C60166
:1038D000821B930BA40BB50BB7FD30C09101A20165
:1038E0002A966FAD2A972B967FAD2B972C968FAD8E
:1038F0002C972E969FAD2E970E9449D220E030E063
:1039000040EC5FE30E9433CE87FD3CCFD701C60178
:10391000805A9541AF4FBF4F23968CAF9DAFAEAF4E
:10392000BFAF23972A962FAE2A972B963FAE2B97A1
:103930002C964FAE2C972E965FAE2E9780913E021E
:10394000882309F41FCF81149104A104B10429F440
:10395000C12ED02EE72CF62CE4CE90E1C91A97E2C6
:10396000D90AE108F108C818D908EA08FB08F7FEE7
:1039700009CFEECFEAE8F3E084918F01882351F07C
:10398000082E000C990B0E944B820F5F1F4FF8010D
:103990008491F4CF8DE090E00E944B828AE090E029
:1039A0000E944B8280919F0F8823D1F0E6E8F3E0DC
:1039B00084918F01882351F0082E000C990B0E94EE
:1039C0004B820F5F1F4FF8018491F4CF8DE090E0A0
:1039D0000E944B828AE090E00E944B820C94DE2889
:1039E0008091BE06882311F40C94DE28E2E8F3E00F
:1039F00084918F01882351F3082E000C990B0E94AB
:103A00004B820F5F1F4FF8018491F4CF80915212C7
:103A100083FF02C00C94DE28E6EEF3E084918F0170
:103A2000882351F0082E000C990B0E944B820F5FE7
:103A30001F4FF8018491F4CF8DE090E00E944B82FB
:103A40008AE090E00E944B8260E089ED93E00E9462
:103A50001D5C83E50E944EA024968FAF24978111B0
:103A600005C082E50E944EA08823B1F00E94C6A046
:103A70000E948ED370939A0D6093990D0E94537C8F
:103A80000E94C6A020E030E040EA50E40E9470D4DA
:103A9000181614F40E94376381E080933E028091EF
:103AA000EB048093EA0423961CAE1DAE1EAE1FAE3F
:103AB000239729961CAE1DAE1EAE1FAE29971BAED6
:103AC0002A961FAE2A97FCE32B96FFAF2B972CE18B
:103AD0002C962FAF2C9736E42E963FAF2E97C12C05
:103AE000D12CF0E8EF2EAFEBFA2E812C912C540163
:103AF0006091990D70919A0D072E000C880B990B0F
:103B00000E9439CE162F072F782E692E262F372F99
:103B1000482F592FB601C7010E9433CE882321F1C7
:103B20002091020E3091030E4091040E5091050E2B
:103B3000612F702F872D962D0E9433CE881F8827E6
:103B4000881F8BAF24964FAD2497442389F0882398
:103B500079F080913E02882311F40C94DE28EEEC7B
:103B6000F3E084918F01EDC01C2D0D2D7E2C6F2C68
:103B70000E94D4546B017C01DC01CB0129962CAD51
:103B80003DAD4EAD5FAD2997821B930BA40BB50BDA
:103B9000B7FD47C0D701C60188519C4FAF4FBF4FFB
:103BA00029968CAF9DAFAEAFBFAF29970E945C92B4
:103BB000E5EDF3E084912F019FEF491A590A88231C
:103BC00021F00E9420BCF201F5CF81149104A104E0
:103BD000B104D1F0D501C401805F984DAF4FBF4F04
:103BE000BC01CD016C197D098E099F0928EE33E0D7
:103BF00040E050E00E940ED2CA01B9010E94CEBC42
:103C00008AE00E9420BC0DC0E2EDF3E084912F0118
:103C1000AFEF4A1A5A0A882321F00E9420BCF20111
:103C2000F5CF0E9447A50E9415BC2090020E30904F
:103C3000030E4090040E5090050E9101A201612FD9
:103C4000702F872D962D0E9449D29F778114910461
:103C5000A104B10449F420E030E040E85FE30E94B1
:103C600033CE87FF0BC008C020E030E040E450E4D2
:103C70000E9470D4181614F446015701BBADBB2343
:103C800009F443C023962CAD3DAD4EAD5FAD2397F7
:103C9000211531054105510541F0D701C601821BAF
:103CA000930BA40BB50BB7FD30C09101A2012A966E
:103CB0006FAD2A972B967FAD2B972C968FAD2C97B7
:103CC0002E969FAD2E970E9449D220E030E040EC26
:103CD0005FE30E9433CE87FD3CCFD701C601805AF7
:103CE0009541AF4FBF4F23968CAF9DAFAEAFBFAFE7
:103CF00023972A962FAE2A972B963FAE2B972C967A
:103D00004FAE2C972E965FAE2E9780913E02882361
:103D100009F41FCF81149104A104B10429F4C12E28
:103D2000D02EE72CF62CE4CE90E1C91A97E2D90AFE
:103D3000E108F108C818D908EA08FB08F7FE09CF1E
:103D4000EECF882351F0082E000C990B0E944B8275
:103D50000F5F1F4FF8018491F4CF8DE090E00E9437
:103D60004B828AE090E00E944B8260E084EC93E01A
:103D70000E941D5C0C94DE2883E50E944EA08823DF
:103D800021F00E9427C98C0102C003EB10E080E5FE
:103D90000E944EA0882319F00E9427C902C080E02B
:103DA00090E09801033B110510F022EB30E0892BE5
:103DB00011F00C94DE2830939C0D20939B0D0C94F5
:103DC000DE2880E50E944EA0811106C010929C0D55
:103DD00010929B0D0C94DE280E9427C9892B11F0AC
:103DE0000C94DE28F3CF0E94A37C0E9469390E94C4
:103DF0007BA910929C0D10929B0D68EE73E080E001
:103E000090E00E949C5460E08AEE93E00E941D5C6A
:103E10000E94435C0E94302B0C94DE2881E080934A
:103E2000EF040C94DE2883E50E944EA0882361F005
:103E30000E94EFA06093EA027093EB028093EC0281
:103E40009093ED020C94DE2888E50E944EA081112B
:103E50000C94B62889E50E944EA081110C94B628D6
:103E60008AE50E944EA081110C94B62885E40E9438
:103E70004EA081110C94B6280E9469390E947BA93A
:103E80000C94DE2883E50E944EA0882311F40C9444
:103E9000DE280E94EFA060937113709372138093D9
:103EA0007313909374130C94DE28D6018D916D01D9
:103EB0000E944EA0882309F46DC0133009F063C03E
:103EC0000E94C6A04B015C0120E030E040EA51E4D2
:103ED0000E9433CE87FF4EC0A50194016091C20DB0
:103EE0007091C30D8091C40D9091C50D0E9426D391
:103EF0002B013C019B01AC016091D7137091D81349
:103F00008091D9139091DA130E9498CE6093D713C1
:103F10007093D8138093D9139093DA13A30192016D
:103F20006091C7137091C8138091C9139091CA13FF
:103F30000E9498CE6093C7137093C8138093C913DF
:103F40009093CA1360915F12709160128091611218
:103F5000909162120E9437CEA30192010E9498CEE6
:103F60000E9493D360935F127093601280936112EA
:103F7000909362128092C20D9092C30DA092C40DD4
:103F8000B092C50D07C00E94C6A0F701608371837F
:103F9000828393831F5FF4E0EF0EF11C143009F06D
:103FA00084CF0E941C840C94DE280E9417910C94EC
:103FB000DE28EAEFF3E084918F010F5F1F4F882323
:103FC00011F40C94DE280E9420BCF801F4CF60E0CC
:103FD000C7010E94325C0C94DE2884918F010F5F30
:103FE0001F4F882321F00E9420BCF801F6CFEDED91
:103FF000F4E084918F010F5F1F4F882321F00E940E
:1040000020BCF801F6CF659B03C000E014E002C0BD
:1040100005E014E0D8018D918D01882319F00E94EC
:1040200020BCF8CF8AE00E9420BCE5EDF4E084914A
:104030008F010F5F1F4F882321F00E9420BCF801E1
:10404000F6CF8091090187FF03C000E014E002C0B1
:1040500005E014E0F80181918F01882319F00E9496
:1040600020BCF8CF8AE00E9420BCEDECF4E0849103
:104070008F010F5F1F4F882321F00E9420BCF801A1
:10408000F6CF4B9B03C000E014E002C005E014E053
:10409000D8018D918D01882319F00E9420BCF8CFA2
:1040A0008AE00E9420BCE4ECF4E084918F010F5F71
:1040B0001F4F882321F00E9420BCF801F6CF809189
:1040C000090186FF03C000E014E002C005E014E02F
:1040D000F80181918F01882319F00E9420BCF8CF4C
:1040E0008AE00E9420BC0C94DE2881E080930B02C1
:1040F0008093E0130C94DE2810920B021092E013D0
:104100000C94DE2883E50E944EA08823F9F00E94DB
:1041100033C9182F8230D8F0E0E3F2E284918F01A6
:104120000F5F1F4F882321F00E9420BCF801F6CFBB
:10413000EFEFF4E084918F010F5F1F4F882311F49C
:104140000C94DE280E9420BCF801F4CF10E088E433
:104150000E944EA08823B1F00E9433C9E12FF0E005
:104160008A3A91053CF08F3021E092072CF08EE0E6
:1041700091E002C08AEA90E0EE0FFF1FE15AF24F91
:104180009183808386E40E944EA08823A1F00E9440
:1041900033C9E12FF0E0EE0FFF1FED59F24F8F3FD3
:1041A000910519F014F08FEF90E097FF02C080E0C6
:1041B00090E09183808382E40E944EA0882309F4DA
:1041C000FDC70E9433C9E12FF0E08530910534F03E
:1041D000883891052CF087E890E002C085E090E0F7
:1041E000EE0FFF1FE55AF24F91838083E7C788ECFB
:1041F00090E00E9439998111E1C784E40E944EA0A9
:10420000882309F4DBC70E94C6A011E020E030E05B
:10421000A9010E9433CE811101C010E010937C12DD
:10422000112359F10091EA0410E00E94C6A0000F8A
:10423000111F000F111FF801EA51FD4F60837183B8
:104240008283938320E030E0A9016091E6027091BF
:10425000E7028091E8029091E9020E9433CE811139
:104260000CC080E090E0A0EEBFE38093E602909364
:10427000E702A093E802B093E9020E94FCA49EC763
:1042800093EAE92E93E1F92E0EEE12E024E0D22E0D
:10429000D00ED8018D918D010E944EA0882349F047
:1042A0000E94C6A00E9493D3F7016083718382832A
:1042B0009383F4E0EF0EF11CD012EBCF0E94EF825B
:1042C0007DC7F4E0EF0EF11CD01609F477C7D801D2
:1042D0008D918D010E944EA0882399F30E94C6A063
:1042E000F7016083718382839383EBCF83E50E9420
:1042F0004EA08823D9F00E94C6A0AB01BC01409318
:10430000DB135093DC136093DD137093DE13409343
:104310009B1350939C1360939D1370939E138BE794
:1043200095E00E948BBD8AE00E9420BC80E50E943F
:104330004EA0882399F00E94C6A0AB01BC01409317
:10434000DB135093DC136093DD137093DE138EE563
:1043500095E00E948BBD8AE00E9420BC82E50E940D
:104360004EA0882399F00E94C6A0AB01BC014093E7
:104370009F135093A0136093A1137093A2138FE324
:1043800095E00E948BBD8AE00E9420BC84E50E94DB
:104390004EA0882309F412C70E94C6A0AB01BC013D
:1043A00040939B1350939C1360939D1370939E13A3
:1043B00081E295E00E948BBD8AE00E9420BCFEC68F
:1043C00083E50E944EA0882351F00E94C6A060930E
:1043D000B7137093B8138093B9139093BA1384E50D
:1043E0000E944EA0882351F00E94C6A06093B31390
:1043F0007093B4138093B5139093B61382E40E9424
:104400004EA0882351F00E94BBA060934E1270937F
:104410004F12809350129093511288E50E944EA043
:10442000882351F00E94C6A06093CB137093CC13E5
:104430008093CD139093CE1389E50E944EA08823DC
:1044400051F00E94C6A06093CF137093D013809355
:10445000D1139093D2138AE50E944EA0882351F085
:104460000E94C6A06093D3137093D4138093D51386
:104470009093D61385E40E944EA0882309F49EC62B
:104480000E94C6A06093D7137093D8138093D9135A
:104490009093DA1393C6D5018D915D010E944EA0D1
:1044A000882311F10E94C6A02B013C01F701208155
:1044B0003181428153810E9449D29B01AC01D601D6
:1044C0006D917D918D919C910E944AD2F6016083FD
:1044D000718382839383D7014D925D926D927C921A
:1044E0001397C8010E94EC980F5F1F4FB4E0CB0EEA
:1044F000D11CE4E0EE0EF11C0330110561F60E94C0
:10450000F2A40E9417915AC68AE50E944EA0882301
:1045100051F00E94C6A06093E1137093E213809360
:10452000E3139093E4134091E1135091E2136091EF
:10453000E3137091E41383EA95E00E948BBD8AE057
:104540000E9420BC3BC6E3EAFAE184918F010F5F31
:104550001F4F882321F00E9420BCF801F6CF83E58D
:104560000E944EA0882321F00E9490A080935C02BC
:10457000EDEEF5E084918F010F5F1F4F882321F04E
:104580000E9420BCF801F6CF80915C02811103C02B
:10459000E9EEF5E002C0E5EEF5E084918F010F5FF2
:1045A0001F4F882321F00E9420BCF801F6CFEDEDCB
:1045B000F5E084918F010F5F1F4F882321F00E9447
:1045C00020BCF801F6CF4091500250915102609109
:1045D0005202709153028BED95E00E948BBD409189
:1045E000540250915502609156027091570288ED25
:1045F00095E00E948BBD4091580250915902609104
:104600005A0270915B0285ED95E00E948BBDEDEC46
:10461000F5E084918F010F5F1F4F882321F00E94E6
:1046200020BCF801F6CF40914402509145026091C0
:104630004602709147028BEC95E00E948BBD409141
:1046400048025091490260914A0270914B0288ECF5
:1046500095E00E948BBD40914C0250914D026091BB
:104660004E0270914F0285EC95E00E948BBD8AE06E
:104670000E9420BCA3C583E50E944EA0882309F4B4
:104680009DC50E9433C9909342028093410296C512
:104690008DED90E00E943999811190C583E50E94CB
:1046A0004EA0882309F48AC50091EA0410E00E9414
:1046B00033C9000F111FF801E15CFD4F9183808326
:1046C0007DC580E50E944EA0882309F477C50E942D
:1046D00033C98C0183E50E944EA0882321F00E94FB
:1046E00033C97C0103C0EE24EA94FE2CC701019675
:1046F000039708F063C517FD61C5E2EFF2E0C8015A
:104700009927219131912817390709F457C523E0DA
:10471000E834F207B1F762C783E50E944EA0882310
:1047200021F00E9433C98C0102C00EE610E080E542
:104730000E944EA0882319F00E9433C902C088EE5F
:1047400093E06C01990FEE08FF081016110674F43F
:1047500040E050E0BA01C8010E945B7DC701B6018C
:104760000E949C548FE10E94C43428C5C701B60141
:104770000E949C5423C585E40E944EA0811110C064
:1047800080E50E944EA0882399F00E94C6A0609305
:10479000120270931302809314029093150208C0C2
:1047A0000E9433C9181619065CF7E0E3F2E271C003
:1047B00089E40E944EA0882381F00E94C6A02CE9C3
:1047C00033E549E45EE30E9498CE60931A02709349
:1047D0001B0280931C0290931D0284E40E944EA051
:1047E000882381F00E94C6A02CE933E549E45EE30A
:1047F0000E9426D3609316027093170280931802CA
:1048000090931902E3EAFAE184918F010F5F1F4F41
:10481000882321F00E9420BCF801F6CF40911202BB
:1048200050911302609114027091150285E096E098
:104830000E948BBD2CE933E549E45EE360911A02E6
:1048400070911B0280911C0290911D020E9426D340
:10485000AB01BC0181E096E00E9470BD2CE933E51C
:1048600049E45EE36091160270911702809118028C
:10487000909119020E9498CEAB01BC018DEF95E09A
:104880000E9470BD8AE00E9420BC98C40E9420BC97
:10489000F80184918F010F5F1F4F8111F7CF03E162
:1048A00014E0D8018D918D01882309F419CC0E9460
:1048B00020BCF7CF83E50E944EA0082F8823A1F0EB
:1048C0000E94C6A06093DE027093DF028093E00234
:1048D0009093E10211E020E030E0A9010E9433CE84
:1048E000811110E010934D1280E50E944EA0182F08
:1048F0008823A9F020E030E0A9016091DE027091E8
:10490000DF028091E0029091E1020E9433CE882381
:1049100019F00E9490A0182F10934D124FC401114E
:104920004DC4E3EAFAE184918F010F5F1F4F8823A2
:1049300021F00E9420BCF801F6CF80914D12811128
:1049400003C06FE074E002C062E074E08EE196E0C4
:104950000E9427BC20E030E040E05FE36091DE028F
:104960007091DF028091E0029091E1020E944AD2B0
:104970000E948ED38DE096E00E94E8BCE9E0F6E06C
:1049800084918F010F5F1F4F882309F417C40E9481
:1049900020BCF801F5CF85E40E944EA0882321F0C9
:1049A0000E9433C97C0102C0E12CF12C83E40E94F7
:1049B0004EA0882339F00E9433C9A8969FAF8EAFCE
:1049C000A89706C0E5E0F0E0A896FFAFEEAFA89785
:1049D00085E50E944EA0882331F00E9490A0A99600
:1049E0008FAFA99703C0A9961FAEA99783E50E9430
:1049F0004EA0882379F00E94C6A024966FAF24971A
:104A000026967FAF26972A968FAF2A972B969FAF31
:104A10002B9710C024961FAE249726961FAE26977C
:104A2000F7FC0EC0F6E12A96FFAF2A9723E42B96F7
:104A30002FAF2B97E114F10459F41092EA0408C047
:104A40003CE82A963FAF2A9742E42B964FAF2B972C
:104A50000E94D4544B015C01EF2819F404E214E0E5
:104A60000BC007E314E0D8018D918D01882309F470
:104A700037CB0E9420BCF7CFF80181918F018823AA
:104A800019F00E9420BCF8CF8AE00E9420BC0E944E
:104A9000A37C8FE78093FE0D81E080933E02A29677
:104AA0008CAE9DAEAEAEBFAEA297AD968CAE9DAEB7
:104AB000AEAEBFAEAD972E961FAE2E97F0E42F96FA
:104AC000FFAF2F972CE160962FAF609736E4619689
:104AD0003FAF619762961FAE629763961FAE639772
:104AE00064961FAE649765961FAE65976D961CAE73
:104AF0001DAE1EAE1FAE6D9769961CAE1DAE1EAEEE
:104B00001FAE6997C12CD12C76018FE790E0A0E011
:104B1000B0E08BAF9CAFADAFBEAF7FE7472E512C5F
:104B2000612C712CA6961CAE1DAE1EAE1FAEA697B4
:104B300091E06E969FAF6E972D961FAE1EAE2D978D
:104B400010E000E0312C212C80913E02882309F4F2
:104B5000DDC10E94D45423966CAF7DAF8EAF9FAF62
:104B600023978091FC0D882309F4DDC00E94C57C49
:104B70001091850E0091860E3090870E2090880E41
:104B8000212F302F432D522D62966FAD6297639681
:104B90007FAD639764968FAD649765969FAD65977B
:104BA0000E9433CE87FF0CC062961FAF6297639658
:104BB0000FAF639764963FAE649765962FAE659787
:104BC000212F302F432D522D2E966FAD2E972F96DD
:104BD0007FAD2F9760968FAD609761969FAD61977F
:104BE0000E9470D4181664F42E961FAF2E972F963D
:104BF0000FAF2F9760963FAE609761962FAE61978B
:104C00006E96AFAD6E9724962FAD249726963FAD46
:104C100026972A964FAD2A972B965FAD2B97612F3B
:104C2000702F832D922DAA2309F461C00E9470D4A5
:104C300018160CF078C023962CAD3DAD4EAD5FAD8F
:104C40002397281939094A095B09E5962CAF3DAF2E
:104C50004EAF5FAFE597DA01C90188589341A109CA
:104C6000B109B7FD60C0D301C2012BAD3CAD4DAD64
:104C70005EAD821B930BA40BB50BB595A7959795CD
:104C800087958093FE0DE5968CAD9DADAEADBFAD25
:104C9000E597A6968CAF9DAFAEAFBFAFA697249613
:104CA0009FAD249762969FAF62972696AFAD2697E9
:104CB0006396AFAF63972A96BFAD2A976496BFAF4E
:104CC00064972B96EFAD2B976596EFAF659723967C
:104CD0002CAD3DAD4EAD5FAD2397A2962CAF3DAF51
:104CE0004EAF5FAFA2976E961FAE6E971CC00E942C
:104CF00033CE87FF18C023968CAD9DADAEADBFAD52
:104D00002397A2962CAD3DAD4EAD5FADA297821B11
:104D1000930BA40BB50BAC01BD014858534161097D
:104D2000710977FFC7C220E030E040EA51E42496E1
:104D30006FAD249726967FAD26972A968FAD2A973A
:104D40002B969FAD2B970E944AD29B01AC01612FFD
:104D5000702F832D922D0E9470D418166CF4EBEEF8
:104D6000F6E084918F010F5F1F4F882309F426C25C
:104D70000E9420BCF801F5CF80E398EFAFEFBFEFC2
:104D8000AD962CAD3DAD4EAD5FADAD97821B930B97
:104D9000A40BB50B23962CAD3DAD4EAD5FAD239767
:104DA000820F931FA41FB51FB7FD11C00E945C9214
:104DB0008AE00E9420BC23968CAD9DADAEADBFAD08
:104DC0002397AD968CAF9DAFAEAFBFAFAD97239697
:104DD0008CAD9DADAEADBFAD2397880F991FAA1FB7
:104DE000BB1FA2962CAD3DAD4EAD5FADA297821B11
:104DF000930BA40BB50B88199909AA09BB09813833
:104E00009F44A241B10568F0EDECF6E084918F017A
:104E10000F5F1F4F882309F4D1C10E9420BCF80105
:104E2000F5CF2D964EAD5FAD2D97A8968EAD9FAD6B
:104E3000A897841795070CF066C0E0E7F6E0849128
:104E40008F010F5F1F4F882321F00E9420BCF801C3
:104E5000F6CFB701A6018BE596E00E948BBD8AE0F4
:104E60000E9420BC69964CAD5DAD6EAD7FAD69977B
:104E700086E496E00E948BBD8AE00E9420BC6D967D
:104E80004CAD5DAD6EAD7FAD6D9781E396E00E9458
:104E90008BBD8AE00E9420BCA9969FADA99799235B
:104EA00009F48CC1C0921202D0921302E092140253
:104EB000F09215022CE933E549E45EE369966CADA6
:104EC0007DAD8EAD9FAD69970E9498CE60931A021A
:104ED00070931B0280931C0290931D022CE933E512
:104EE00049E45EE36D966CAD7DAD8EAD9FAD6D9783
:104EF0000E9426D3609316027093170280931802C3
:104F0000909319025BC10E94435C1ECE80913E02C9
:104F1000811154C10E94A37C51C121962EAD3FAD99
:104F200021972F5F3D4025963FAF2EAF25972196C5
:104F3000AEADBFAD21978D912196BFAFAEAF21979A
:104F4000882309F4B0C0F801EC5BFD4F208131816A
:104F500042815381F801E05BFD4F60817181828164
:104F600093810E944AD220E030E040E05FE30E945B
:104F700098CE9B01AC01F1016081718182819381A6
:104F80000E9470D4181634F4C8018C5E964E0E94AC
:104F9000E0BB03C060E070E0CB01D1014D905D90BB
:104FA0006D907C90EBADFCADC080D180E280F38051
:104FB000A70196010E944AD2F801EA52F24F2081DD
:104FC0003181428153810E944AD29B01AC01C301CD
:104FD000B2010E9449D24B015C0120E030E040EA7E
:104FE00051EC0E9470D418167CF520E030E040EAC5
:104FF00051E4C501B4010E9433CE87FF25C0A5014D
:105000009401C701B6010E9449D24B015C01A7017E
:1050100096010E9449D29B01AC01C301B2010E94DA
:105020004AD2D1016D937D938D939C931397EBADF1
:10503000FCAD80829182A282B38225968EAD9FAD17
:1050400025970E94EC982FC0E0E3F2E284918F0153
:105050000F5F1F4F882321F00E9420BCF801F6CF7C
:10506000EDE7F7E084918F010F5F1F4F882321F058
:105070000E9420BCF801F6CF61E08FE697E00E9425
:105080001D5C0E94C67488E290E09A83898388EC54
:1050900090E099A388A3BE016F5F7F4FCE018096F9
:1050A0000E94CCC48BC0F4E02F0E311C0C5F1F4F4C
:1050B0002BAD3CAD2C5F3F4F3CAF2BAF0C301105FF
:1050C00009F02BCF0E94F2A40E94179160E08FE5B7
:1050D00097E00E941D5C83E992E099A388A308EC05
:1050E00010E01A830983BE01605E7F4FCE010196F6
:1050F0000E94CCC48AEB92E099A388A31A83098307
:10510000BE01605E7F4FCE0101960E94CCC456C0A6
:105110000E94B64B53C00E94B24950C00E9470B466
:105120004DC083E50E944EA0882321F00E9490A0EC
:1051300091E089270E94EBB041C00093EB04E3EAC1
:10514000FAE184917F013FEFE31AF30A882321F00B
:105150000E9420BCF701F5CFB80177278BE997E0D3
:105160000E94E8BC8AE00E9420BC28C00E946939E5
:1051700088E50E944EA0882319F05F9A10929A0643
:1051800089E50E944EA0882321F08A9A479A1092BE
:105190009B068AE50E944EA0882359F09FB7F89499
:1051A000809108018160809308019FBF479A109207
:1051B0009C0685E40E944EA08111129A0E9420AAAA
:1051C00035C281E08093DA048DEB9AEB909337023D
:1051D0008093360280916A008F7C806180936A00A0
:1051E000EE9AECCF0E943FC9AB01BC0140931B1269
:1051F00050931C1260931D1270931E128AE691E167
:105200000E94A74FDBCF0E943FC9AB01BC01409376
:105210001B1250931C1260931D1270931E128AE68B
:1052200091E10E94A74F0C94E3190E94C6A00E942E
:1052300052740E94C6A020E030E04AEA52E40E9484
:1052400033CE181644F00E94427D60E082EB93E07A
:105250000E941D5C02C00E9437636091830E7091B2
:10526000840E072E000C880B990B0E9439CE2091DA
:10527000850E3091860E4091870E5091880E0E94C7
:1052800070D418162CF460E087EA93E00E941D5C4D
:10529000E3EAF3E084918F01882311F40C945F1BFF
:1052A000082E000C990B0E944B820F5F1F4FF801D4
:1052B0008491F2CF2D964EAD5FAD2D971416150645
:1052C0000CF039C1A6968CAC9DACAEACBFACA69729
:1052D000880E991EAA1EBB1EA6962CAD3DAD4EADE6
:1052E0005FADA697281B390B4A0B5B0BCA01B901AE
:1052F0002BAD3CAD4DAD5EAD0E94FFD1A50194013B
:105300000E9439D5420E531E641E751E34E14316A9
:10531000510461047104FCF04CEE44165104610424
:1053200071043CF450E845165104610471040CF119
:1053300005C05BEE452E512C612C712C8EEF90E058
:10534000A0E0B0E084199509A609B7098BAF9CAF1E
:10535000ADAFBEAF12C044E1442E512C612C712C74
:1053600024E130E040E050E02BAF3CAF4DAF5EAF0A
:1053700004C04BAE5CAE6DAE7EAEB301A20187E55C
:1053800097E00E9449C94BAD5CAD6DAD7EAD82E545
:1053900097E00E9449C92E964FAD2E972F965FAD8C
:1053A0002F9760966FAD609761967FAD61978BE4A4
:1053B00097E00E948BBD62964FAD629763965FAD9A
:1053C000639764966FAD649765967FAD659784E447
:1053D00097E00E948BBD2D964EAD5FAD2D9743306B
:1053E00051050CF4A8C06BAD7CAD8DAD9EAD0E9497
:1053F00039CE20E030E040E850E40E9498CE6B01C6
:105400007C012E962FAD2E972F963FAD2F9760964D
:105410004FAD609761965FAD619762966FAD629791
:1054200063967FAD639764968FAD649765969FADE5
:1054300065970E9449D22BED3FE049E450E40E9479
:1054400098CE20E030E040E05FE30E9498CE9B01E0
:10545000AC01C701B6010E9426D36B017C01C501D6
:10546000B4010E9439CE2FE632E143E85AE30E94AC
:1054700098CE4B015C01B701A6018EE397E00E9434
:105480008BBDB501A40188E397E00E948BBD2AE99A
:1054900039E949E15FE3C701B6010E9498CE6B018B
:1054A0007C019B01AC010E944AD2A50194010E949B
:1054B00026D369966CAF7DAF8EAF9FAF6997A5017C
:1054C0009401C701B6010E9498CE20E030E040E090
:1054D0005EE30E9498CE6D966CAF7DAF8EAF9FAFAE
:1054E0006D97E8E2F7E084915F015FEFA51AB50AD6
:1054F000882321F00E9420BCF501F5CFB701A60159
:1055000082E297E00E948BBD69964CAD5DAD6EADB9
:105510007FAD69978CE197E00E948BBD6D964CAD95
:105520005DAD6EAD7FAD6D9786E197E00E948BBD5E
:105530008AE00E9420BC8BAD9CADADADBEAD840DAC
:10554000951DA61DB71DB595A79597958795809331
:10555000FE0D2D968EAD9FAD2D9701962D969FAF8A
:105560008EAF2D9724969FAD24972E969FAF2E97A2
:105570002696AFAD26972F96AFAF2F972A96BFAD41
:105580002A976096BFAF60972B96EFAD2B976196E9
:10559000EFAF619723968CAC9DACAEACBFAC2397BC
:1055A000F1E06E96FFAF6E97BECBE3EAFAE184912D
:1055B0008F010F5F1F4F882321F00E9420BCF8014C
:1055C000F6CF6D2D7C2D8DEA97E00E9427BC82E2FC
:1055D0000E9420BC8AE00E9420BCF0CD0E94693964
:1055E000D02E60E0802F0E9460544FEFE416F40646
:1055F00059F4802F0E940DC431E020E0892B09F07E
:1056000030E0032F122F05C0EA94EF2861F000E08C
:1056100010E08D2D0E940DC48017910709F4CECDA6
:105620000E9447A5F6CF01E010E0F3CFCC58DF4F42
:105630000FB6F894DEBF0FBECDBFDF91CF911F91A3
:105640000F91FF90EF90DF90CF90BF90AF909F9021
:105650008F907F906F905F904F903F902F90089524
:105660002F923F924F925F926F927F928F929F9272
:10567000AF92BF92CF92DF92EF92FF920F931F9360
:10568000CF93DF93CDB7DEB76E970FB6F894DEBF3A
:105690000FBECDBF80919006909191060397DCF4E8
:1056A00035E8232E38E0332E8E010F5F1F4F40E682
:1056B000842E4AEE942EA12CB12C8FE49FE00E9400
:1056C000DD6C181619063CF48091900690919106B5
:1056D00004970CF45FC0809190069091910600971A
:1056E00091F00197909391068093900680917D06AA
:1056F00090917E06019664E070E00E9426D590931A
:105700007E0680937D06C090850ED090860EE09038
:10571000870EF090880E20E030E040EA50E4C701A8
:10572000B6010E9433CE87FF02C00C94733420E090
:1057300030E84EE853E4C701B6010E9470D4181651
:1057400014F40C94733480918E0690918F068934F2
:105750009E4E10F40C947E3410928F0610928E069A
:10576000E9EFF8E084918F01882351F0082E000CB6
:10577000990B0E944B820F5F1F4FF8018491F4CF69
:105780008DE090E00E944B828AE090E00E944B8284
:105790000C947E348FE49FE00E94A16C80938D0670
:1057A00020918A0630918B068A3061F08D3051F05D
:1057B0008A3321F490918C06992321F02F353105FD
:1057C0000CF4DDC52115310519F410928C0683CF38
:1057D000809188069091890670E6D72ED89E300178
:1057E000D99E700C1124260D371DF901E350FB4F93
:1057F000108220918C062111BDC510928C06FC01EF
:10580000EC57F94F1082C30183509B4F7C016EE42B
:1058100070E00E94A3D5009709F43FC09093FC0468
:105820008093FB048E199F09860D971D4AE050E076
:1058300060E070E082509B4F0E945FCB6093E60473
:105840007093E7048093E8049093E904409069130F
:1058500050906A1360906B1370906C13A3019201C7
:105860002F5F3F4F4F4F5F4F6090880670908906C3
:10587000621773078407950709F4A2C5D69CC00177
:10588000D79C900D112464EF78E083509B4F0E94C9
:10589000EACD892B09F094C5F5C56AE270E0C7012D
:1058A0000E94A3D5892B79F1EFEEF8E084918F0166
:1058B0008823A1F0082E000C990B0E944B820F5FE9
:1058C0001F4FF8018491F4CF0E94D1BBF80184915D
:1058D0000FEE18E08111BBC50E94D1BB10928B0660
:1058E00010928A06F8CE8091E6049091E704A09188
:1058F000E804B091E9048093691390936A13A0932C
:105900006B13B0936C13809188069091890620E602
:10591000289F7001299FF00C1124C70183509B4FD1
:105920006C0161E470E00E94A3D5009709F40CC5F6
:105930009093FC048093FB048C199D098E0D9F1D90
:1059400060E070E082509B4F0E94F9C90E948ED3A4
:10595000CB01770FAA0BBB0B8232910508F0F4C480
:10596000FC018827EE58FF4F8F4F0C9455D5EAEE77
:10597000F8E084917F01882359F0082E000C990BE0
:105980000E944B829FEFE91AF90AF7018491F3CF45
:1059900020E030E040E05FE36091850E7091860E7C
:1059A0008091870E9091880E1FC0E5EEF8E08491FB
:1059B0007F01882359F0082E000C990B0E944B821E
:1059C000FFEFEF1AFF0AF7018491F3CF6091830E86
:1059D0007091840E072E000C880B990B0E9439CE13
:1059E00020E030E040E05FE30E944AD20E948ED384
:1059F0007A836983C8010E94A15BBC018FE49FE0A8
:105A00000E9483358DE090E00E944B828AE090E016
:105A10000E944B8299C4E0EEF8E084917F018823D4
:105A200059F0082E000C990B0E944B82FFEFEF1AE1
:105A3000FF0AF7018491F3CF20E030E040E05FE31C
:105A40006091020E7091030E8091040E9091050EEC
:105A5000CBCFEBEDF8E084917F01882359F0082E3D
:105A6000000C990B0E944B82FFEFEF1AFF0AF7011F
:105A70008491F3CF6091990D70919A0DABCF2091E5
:105A80009B0D30919C0D44E6429FC001439F900DB9
:105A9000112462EB70E00E9412D56B01FFEFCF1A68
:105AA000DF0A25E6C216D10418F064E6C62ED12C12
:105AB000E6EDF8E084917F01882359F0082E000C70
:105AC000990B0E944B828FEFE81AF80AF701849134
:105AD000F3CFB60180E090E069C3E2EDF8E0849195
